:100000000C947F000C94A7000C94A7000C94A700FC
:100010000C94A7000C94A7000C9456060C94A7000F
:100020000C94A7000C94A7000C94A7000C94A700B4
:100030000C94A7000C94A7000C94A7000C94A700A4
:100040000C94F9030C94A7000C9412030C94EC028A
:100050000C94A7000C94A7000C94A7000C94A70084
:100060000C94A7000C94A700B90BB90BB90BF20BB9
:10007000DD0BEC0BB90BB90BF20BDD0B496E20530A
:10008000657475702066756E6374696F6E00546177
:10009000736B31005461736B32005461736B3300C6
:1000A00049646C6520737461746500000000080089
:1000B000020100000304070000000000000000002F
:1000C000000000250028002B00000000002400276D
:1000D000002A0004040404040404040202020202CC
:1000E00002030303030303010204081020408001FC
:1000F000020408102001020408102000200D112421
:100100001FBECFEFD8E0DEBFCDBF11E0A0E0B1E071
:10011000E6E7F2E202C005900D92A434B107D9F7E8
:1001200022E0A4E4B1E001C01D92A037B207E1F7DC
:1001300010E0CFE7D0E004C02197FE010E94FD0F40
:10014000CE37D107C9F70E94140C0C9439110C94C6
:100150000000E0916D01F0916E018081811103C07A
:100160008FEF9FEF0CC0E0916D01F0916E01058063
:10017000F681E02D0680F781E02D828193819093B6
:10018000480180934701089560E088E00E9487035A
:1001900060E089E00E94870360E08AE00E948703B4
:1001A00061E08BE00E94870380EA90E00E944403B4
:1001B0000E94D4034B015C0182E3C82ED12CE12CB8
:1001C000F12C0E94D403DC01CB0188199909AA09FA
:1001D000BB09883E9340A105B10598F321E0C21AFE
:1001E000D108E108F10888EE880E83E0981EA11C72
:1001F000B11CC114D104E104F10419F7C5CF60E0CA
:1002000088E00E94870360E089E00E94870361E044
:100210008AE00E94870360E08BE00E9487038AE9FE
:1002200090E00E94440387E090E00E948C09E7CFB1
:1002300060E088E00E94870361E089E00E94870314
:1002400060E08AE00E94870360E08BE00E94870301
:1002500084E990E00E94440386E090E00E948C09CB
:10026000E7CF61E088E00E94870360E089E00E94B8
:10027000870360E08AE00E94870360E08BE00E94D1
:1002800087038EE890E00E94440386E090E00E949D
:100290008C09E7CF80914601882309F10FB6F894C5
:1002A0000F92E0917D01F0917E01C681D781CE0150
:1002B00002960E9459068091B20181508093B2014A
:1002C000809146018150809346010F900FBE8F8927
:1002D000988D0E94AF09CE010E94AF09DBCF8091BB
:1002E0008A01823010F00E9420070E94E002D2CFE3
:1002F0000F931F93E3EBF1E0A089B18982E08C9327
:10030000A485B5851C92A685B7858FEC8C93108E3D
:10031000A489B58986E08C93A289B3898C91806188
:100320008C93A289B3898C9188608C93A289B389BC
:100330008C9180688C930288F389E02D80818F7D79
:1003400080838CE790E00E94440388E00E94680369
:1003500089E00E9468038AE00E9468038BE00E94A3
:10036000680300E010E021E044E650E068E171E05D
:1003700081E391E00E944A0E22E044E650E06EE103
:1003800071E088E191E00E944A0E23E044E650E0EB
:1003900064E271E08FEF90E00E944A0E20E044E6B4
:1003A00050E06AE271E084EC90E00E944A0E1F91F6
:1003B0000F910895CF92DF92EF92FF920F931F93C8
:1003C000CF93DF936C017A018B01C0E0D0E0CE15B2
:1003D000DF0581F0D8016D918D01D601ED91FC9181
:1003E0000190F081E02DC6010995892B11F021962D
:1003F000EECF7E01C701DF91CF911F910F91FF904A
:10040000EF90DF90CF900895089580E090E00895F8
:10041000FC01538D448D252F30E0842F90E0821B0A
:10042000930B541710F0CF96089501970895FC018F
:10043000918D828D981761F0828DDF01A80FB11D1B
:100440005D968C91928D9F5F9F73928F90E008953F
:100450008FEF9FEF0895FC01918D828D981731F0F9
:10046000828DE80FF11D858D90E008958FEF9FEF4D
:100470000895FC01918D228D892F90E0805C9F4F23
:10048000821B91098F739927089583EB91E00E9455
:10049000390221E0892B09F420E0822F0895FC0124
:1004A000848DDF01A80FB11DA35ABF4F2C91848DFD
:1004B00090E001968F739927848FA689B7892C9332
:1004C000A089B1898C91837080648C93938D848D85
:1004D000981306C00288F389E02D80818F7D808388
:1004E0000895EF92FF920F931F93CF93DF93EC0148
:1004F00081E0888F9B8D8C8D981305C0E889F989E0
:10050000808185FD26C0F62E0B8D10E00F5F1F4FFA
:100510000F731127E02E8C8DE8120CC00FB607FC6C
:10052000FACFE889F989808185FFF5CFCE010E9455
:100530004F02F1CF8B8DFE01E80FF11DE35AFF4F03
:10054000F0829FB7F8940B8FEA89FB8980818062E3
:100550000AC09FB7F894EE89FF896083E889F9891A
:1005600080818370806480839FBF81E090E0DF9111
:10057000CF911F910F91FF90EF900895CF93DF934C
:10058000EC01888D8823C9F0EA89FB89808185FD8B
:1005900005C0A889B9898C9186FD0FC00FB607FCEC
:1005A000F5CF808185FFF2CFA889B9898C9185FF2D
:1005B000EDCFCE010E944F02E7CFDF91CF9108959A
:1005C00080E090E0892B29F00E94450281110C9473
:1005D000000008950E9424111F920F920FB60F92EF
:1005E00011242F933F934F935F936F937F938F9338
:1005F0009F93AF93BF93EF93FF9383EB91E00E94A0
:100600004F02FF91EF91BF91AF919F918F917F9199
:100610006F915F914F913F912F910F900FBE0F906F
:100620001F9018951F920F920FB60F9211242F93BF
:100630008F939F93EF93FF93E091C301F091C401D7
:100640008081E091C901F091CA0182FD12C09081C0
:100650008091CC018F5F8F732091CD01821751F073
:10066000E091CC01F0E0ED54FE4F958F8093CC01EA
:1006700001C08081FF91EF919F918F912F910F90F9
:100680000FBE0F901F9018950F931F93CF93DF937A
:100690008C01C0E0D0E0F801EC0FFD1F64916623EF
:1006A00041F083EB91E00E947102892B11F02196B9
:1006B000F2CF42E050E060E471E083EB91E00E9411
:1006C000DA018C0F9D1FDF91CF911F910F9108953B
:1006D00090E0FC01E951FF4F2491FC01ED52FF4FE6
:1006E0008491882399F090E0880F991FFC01E753CB
:1006F000FF4FA591B491FC01E154FF4F8591949176
:100700008FB7F894EC91E22BEC938FBF089590E0B3
:10071000FC01E555FF4F2491FC01E951FF4F349155
:10072000FC01ED52FF4FE491EE2309F43CC022237B
:1007300039F1233091F038F42130A9F0223001F55D
:1007400084B58F7D12C0273091F02830A1F024307D
:10075000B9F4809180008F7D03C0809180008F77F5
:10076000809380000DC084B58F7784BD09C08091CF
:10077000B0008F7703C08091B0008F7D8093B00070
:10078000F0E0EE0FFF1FE154FF4FA591B4919FB72A
:10079000F894611104C08C913095382302C0EC911B
:1007A0003E2B3C939FBF08953FB7F894809155022C
:1007B00090915602A0915702B091580226B5A89B7D
:1007C00005C02F3F19F00196A11DB11D3FBFBA2FE3
:1007D000A92F982F8827820F911DA11DB11DBC0143
:1007E000CD0142E0660F771F881F991F4A95D1F708
:1007F00008951F920F920FB60F9211242F933F93DB
:100800008F939F93AF93BF93809151029091520227
:10081000A0915302B09154023091500223E0230F73
:100820002D3720F40196A11DB11D05C026E8230F28
:100830000296A11DB11D2093500280935102909306
:100840005202A0935302B0935402809155029091AA
:100850005602A0915702B09158020196A11DB11DF8
:100860008093550290935602A0935702B09358027A
:10087000BF91AF919F918F913F912F910F900FBE9C
:100880000F901F9018950F920FB6F8940F921F9229
:1008900011242F923F924F925F926F927F928F928C
:1008A0009F92AF92BF92CF92DF92EF92FF920F93FF
:1008B0001F932F933F934F935F936F937F938F93E8
:1008C0009F93AF93BF93CF93DF93EF93FF93A09149
:1008D000B001B091B1010DB60D920EB60D9213BEDE
:1008E000809165018111F3C0809168019091690147
:1008F00001969093690180936801009799F5209182
:100900006D0130916E0140916B0150916C015093DB
:100910006E0140936D0130936C0120936B01209127
:100920006A012F5F20936A01E0916D01F0916E01E1
:100930002081211107C02FEF3FEF30934801209312
:10094000470110C0E0916D01F0916E010580F681C4
:10095000E02D0680F781E02D22813381309348011C
:100960002093470120914701309148018217930756
:1009700008F49CC020E019E0E0916D01F0916E0157
:100980003081311107C08FEF9FEF90934801809322
:1009900047018DC0E0916D01F0916E010580F681F7
:1009A000E02D0680F781E02D428153818417950761
:1009B00028F4509348014093470179C0AF014E5F3E
:1009C0005F4FA285B38564817581E680F780EB0176
:1009D000FD82EC82C681D7817B836A8311966D91FB
:1009E0007C9112974617570721F41296DC93CE9309
:1009F0001197138612863C9131503C933C91A48907
:100A0000B5891097F9F066857785E088F188EB0164
:100A1000FD82EC82C089D1897B836A831196ED9037
:100A2000FC901297BF01645F7F4FE616F70621F432
:100A30001296DC93CE931197158A148A3C9131500B
:100A40003C933C91A6893091AE013A1710F4A093E3
:100A5000AE011A9FD0011124BD0166577E4F7B0164
:100A6000DB011196CD91DC911297D583C4836C8103
:100A70007D81778366836C817D81DB0113965C9336
:100A80004E9312975D834C83F386E286E7013881AB
:100A90003F5F3883A091B001B091B101468956966D
:100AA0003C91431708F468CF21E066CF20E0E09145
:100AB000B001F091B101E689D9E0ED9FF001112478
:100AC000E657FE4F8081823040F021E006C08091E1
:100AD00044018F5F8093440120E0809145018111A2
:100AE00003C0222309F466C080916501882321F0A8
:100AF00081E0809345015EC010924501A091B00154
:100B0000B091B101E091B001F091B1012D913C9112
:100B10008789908D82179307A8F08091B0019091FA
:100B2000B1018091B0019091B101259A2D9A2FEFDA
:100B300067EA71E6215060407040E1F700C00000B4
:100B40001D9AF5CF8091AE0169E001C08150482F18
:100B500050E0649F9001659F300D1124F901E65724
:100B6000FE4F9081992391F3A181B28112960D904D
:100B7000BC91A02DB283A18323573E4FA217B30788
:100B800031F412962D913C9113973283218399E091
:100B9000949FF001959FF00D1124E657FE4F0180C0
:100BA000F281E02D268137813093B1012093B0018D
:100BB0008093AE01A091B001B091B101CD91CDBFB4
:100BC000DD91DEBFFF91EF91DF91CF91BF91AF91AA
:100BD0009F918F917F916F915F914F913F912F9155
:100BE0001F910F91FF90EF90DF90CF90BF90AF904B
:100BF0009F908F907F906F905F904F903F902F903D
:100C00001F900F900FBE0F900895FC01DB010FB6EF
:100C1000F8940F9240916801509169012D913C9197
:100C200011972F3F8FEF380701F1818192816091F9
:100C30006A017081761719F048175907C0F4481BEC
:100C4000590B4217530770F4241B350B2D933C931B
:100C500080916A01808380916801909169019283FB
:100C6000818303C01D921C9202C080E001C081E01C
:100C70000F900FBE08950FB6F8940F9280916801FF
:100C8000909169010F900FBE0895809165018F5F6B
:100C90008093650108950FB6F8940F92FC01928D30
:100CA0000F900FBE81E0911180E008950E944304EF
:100CB0001895CF93DF93FC01A085B1858281938144
:100CC00024813581EC013D832C83C481D5819B83B4
:100CD0008A8311968D919C911297E817F90721F458
:100CE0001296DC93CE931197118610868C918150C9
:100CF0008C938C91DF91CF910895CF93DF939C01DA
:100D0000FB01DC011196CD91DC911297D383C28354
:100D10008C819D81958384838C819D81DC011396D8
:100D20007C936E9312977D836C8331872087F901C2
:100D300080818F5F8083DF91CF9108950F931F9300
:100D4000CF93DF93DC011596ED91FC911697C68148
:100D5000D7818E01045F1F4FC8010E945906809100
:100D60006501811114C00A501109C8010E94590679
:100D70008E899091AE01981710F48093AE01B9E07E
:100D80008B9FC0011124B80186579E4F03C0B80144
:100D900081E891E00E947D06E091B001F091B101FF
:100DA0009E898689891720F481E08093450101C0DE
:100DB00080E0DF91CF911F910F910895EF92FF9204
:100DC0000F931F93CF93DF93EC010FB6F8940F921C
:100DD0001E8D7C0181E1E80EF11C01E011165CF42E
:100DE0008989882341F0C7010E949E0681110093E2
:100DF00045011150F3CF8FEF8E8F0F900FBE0FB6BE
:100E0000F8940F921D8D7E0188E0E80EF11C01E040
:100E100011165CF48885882341F0C7010E949E0664
:100E20008111009345011150F3CF8FEF8D8F0F90FB
:100E30000FBEDF91CF911F910F91FF90EF9008951A
:100E40000F920FB6F8940F921F9211242F923F9297
:100E50004F925F926F927F928F929F92AF92BF92CA
:100E6000CF92DF92EF92FF920F931F932F933F93B6
:100E70004F935F936F937F938F939F93AF93BF93A2
:100E8000CF93DF93EF93FF93A091B001B091B101A5
:100E90000DB60D920EB60D9280916501882321F05A
:100EA00081E0809345015EC010924501A091B001A0
:100EB000B091B101E091B001F091B1012D913C915F
:100EC0008789908D82179307A8F08091B001909147
:100ED000B1018091B0019091B101259A2D9A2FEF27
:100EE00087EA91E6215080409040E1F700C0000081
:100EF0001D9AF5CF8091AE0169E001C08150482F65
:100F000050E0649F9001659F300D1124F901E65770
:100F1000FE4F9081992391F3A181B28112960D9099
:100F2000BC91A02DB283A18323573E4FA217B307D4
:100F300031F412962D913C9113973283218399E0DD
:100F4000949FF001959FF00D1124E657FE4F01800C
:100F5000F281E02D268137813093B1012093B001D9
:100F60008093AE01A091B001B091B101CD91CDBF00
:100F7000DD91DEBFFF91EF91DF91CF91BF91AF91F6
:100F80009F918F917F916F915F914F913F912F91A1
:100F90001F910F91FF90EF90DF90CF90BF90AF9097
:100FA0009F908F907F906F905F904F903F902F9089
:100FB0001F900F900FBE0F9008958F929F92AF9247
:100FC000BF92CF92DF92EF92FF920F931F93CF9336
:100FD000DF930FB6F8940F92809165018150809352
:100FE000650180916501882311F080E0F2C0809155
:100FF000B2018823D1F3C0E0D0E029E0F22EEE2444
:10100000E39480918101882351F1E0918601F09170
:101010008701C681D781CE010C960E9459068E01A8
:101020000E5F1F4FC8010E9459068E899091AE0134
:10103000981710F48093AE01F89EC0011124B801F6
:1010400086579E4F0E947D06E091B001F091B1015C
:101050009E8986899817A8F2E0924501D2CFCD2BC0
:1010600011F00E94A900E0904401EE2009F4A9C00B
:1010700089E0982E88248394CC24CA94DC2C809117
:10108000650181118CC0C0916801D09169012196E0
:10109000D0936901C09368012097B9F480916D01E4
:1010A00090916E0120916B0130916C0130936E0133
:1010B00020936D0190936C0180936B0180916A0184
:1010C0008F5F80936A010E94A900809147019091EF
:1010D0004801F12CC817D90708F451C0E0916D01FF
:1010E000F0916E018081811105C0D0924801C092BB
:1010F000470145C0E0916D01F0916E010580F681D8
:10110000E02D06811781D80112968D919C9113973D
:10111000C817D90728F490934801809347012FC03E
:101120005801B2E0AB0EB11CC5010E945906F8018E
:1011300084899589892B21F0C8010C960E94590653
:10114000D80156968C919091AE01981710F4809327
:10115000AE01989EC0011124B50186579E4F0E9492
:101160007D06E091B001F091B101D80156969C91B5
:101170008689981708F4B2CFFF24F394AFCFE0919B
:10118000B001F091B101E6899E9EF0011124E6576D
:10119000FE4F8081823048F0FF24F39406C0809196
:1011A00044018F5F80934401F12C809145018111AE
:1011B00001C0F11080924501EA94E11060CF1092D5
:1011C000440180914501882309F40FCF0E94200734
:1011D00081E00F900FBEDF91CF911F910F91FF9093
:1011E000EF90DF90CF90BF90AF909F908F90089539
:1011F0000F931F93CF93DF938C01FB01808191812B
:101200008F3F2FEF920721F4E801AF81B8850EC020
:10121000D801139612962D913C911397E9014881BC
:1012200059818417950710F0D901F4CF12968D914A
:101230009C91139793838283EC01FD83EC83B583A8
:10124000A4831396FC93EE93129711870087F801FD
:1012500080818F5F8083DF91CF911F910F910895DF
:10126000FF920F931F93CF93DF93EC01F62E009123
:101270006801109169018091B0019091B1010296CD
:101280000E945906CF3F8FEFD80789F4FF2079F0ED
:101290006091B0017091B1016E5F7F4F8FE691E078
:1012A000DF91CF911F910F91FF900C947D06C00F9D
:1012B000D11FE091B001F091B101D383C28360915D
:1012C000B0017091B101C017D10768F480916B0132
:1012D00090916C016E5F7F4FDF91CF911F910F91C5
:1012E000FF900C94F80880916D0190916E016E5FF3
:1012F0007F4F0E94F8088091470190914801C817DC
:10130000D90720F4D0934801C0934701DF91CF91D2
:101310001F910F91FF900895CF93DF93EC01892BDC
:1013200019F40E9420070AC00E94450660E0CE0121
:101330000E9430090E94DD07882399F3DF91CF9145
:101340000895FC010396928381832FEF3FEF34834E
:101350002383968385839087878310820895CF9314
:10136000DF93009751F0EC010E944506CE010E94E8
:101370009B10DF91CF910C94DD07DF91CF91089501
:10138000CF93DF93EC010E944506CE010E9403102B
:10139000EC010E94DD07209769F4259A2D9A2FEF22
:1013A00080E792E0215080409040E1F700C00000CB
:1013B0001D9AF5CFCE01DF91CF910895FC01738383
:1013C0006283918780874617570778F0421B530B3B
:1013D0008485958548175907C8F4BF016E5F7F4F14
:1013E00080914B0190914C010DC04217530718F4A6
:1013F0006217730758F4BF016E5F7F4F80914D01F4
:1014000090914E010E94F80880E0089581E00895CF
:10141000EF92FF920F931F93CF93DF93E0914D01D3
:10142000F0914E018081882369F10580F681E02DDD
:1014300000811181C681D7817E0182E0E80EF11C16
:10144000C7010E945906E889F989CE0109958A8960
:1014500082FFE4CF8C859D85800F911F08171907A7
:1014600060F49B838A83D987C887B70180914D0137
:1014700090914E010E94F808D1CFB801CE010E9490
:10148000D40FCCCF80914B0190914C0190934E01A1
:1014900080934D01F0934C01E0934B01DF91CF918C
:1014A0001F910F91FF90EF900895CF93DF93CDB7E9
:1014B000DEB72A970FB6F894DEBF0FBECDBFE0911E
:1014C0004D01F0914E01F080FF2031F00580F68152
:1014D000E02D0081118102C000E010E00E9445066D
:1014E0000E943B066C018091490190914A01C81607
:1014F000D90620F40E94080A81E001C080E0D09261
:101500004A01C0924901811179C0FF20A9F1C0169A
:10151000D106D0F10E94DD07E0914D01F0914E011E
:101520000580F681E02DE680F780C70102960E94D3
:101530005906D70152968C91529782FF12C01C9681
:101540006D917C911D97600F711F9801A601C701D5
:101550000E94DE09882341F0B801C7010E94D40F20
:1015600003C08E7FF701828BD7015096ED91FC91DD
:101570005197C7010995C6C0E0914B01F0914C010C
:101580008081BB24B3948111B12CE0906601F0906E
:1015900067010FB6F8940F92F701858D8F3F09F41C
:1015A000158ED7015E968C915E978F3F11F45E96F3
:1015B0001C920F900FBEF701828D811115C06091B2
:1015C000B0017091B101645F7F4FC70141960E94E5
:1015D0007D06B11004C0C8018C199D0902C08FEFAF
:1015E0009FEF6B2D0E943009C7010E94DE060E940A
:1015F000DD07811187C00E94200784C00E94DD079B
:1016000081C0811109C080916A018E838091680137
:101610009091690198878F830F900FBE0E944506B5
:101620000FB6F8940F92D8015D968C915D978F3F1D
:1016300011F45D961C92F801868D8F3F09F4168E89
:101640000F900FBEBE01675F7F4FCE0106960E94CE
:1016500005068111DDC0C8010E944B06882309F4EC
:10166000D1C0E984FA846091B0017091B101645FE6
:101670007F4FC6010E94F80861E0C7010E9430094F
:10168000C8010E94DE060E94DD07882309F4B7C066
:1016900081E00FB6F8940F92F801F28CFF2009F464
:1016A000A6C0448D41113AC0FA94F801F28E8085AB
:1016B00081114EC00F900FBEF980F7FC23C00C8142
:1016C0001D81D8011A968D919C911B97892B21F031
:1016D000C80102960E9459060E943B066C01809147
:1016E000490190914A01C816D90610F40E94080ACF
:1016F000D0924A01C0924901EF2DFF0CFF0BEA3056
:10170000F10580F100916601109167011A86198632
:1017100080E06801B1E1CB0ED11CBBCF50E08681E7
:101720009781840F951F9783868324813581821743
:10173000930720F08081918197838683D801169644
:101740006D917C911797CE0101960E942911ACCF23
:10175000C80108960E949E06882309F4ABCF0E9418
:101760002007A8CFEC5CFF4FD80152968C910C94C7
:10177000FD0F8160F801828BEA80FB8064857585AE
:101780006E0D7F1D9701A601C8010E94DE09882306
:1017900009F4B8CFD8015096ED91FC915197C8014A
:1017A0000995F801828982FFADCF648575856E0D3C
:1017B0007F1DC8010E94D40FA5CF8160F801828BE4
:1017C0006A817B81758764876C0D7D1D9601A601FA
:1017D000C8010E94DE0996CF81FD04C0C8010E94A5
:1017E000AF0990CF8E7FD80152968C938BCF2985ED
:1017F0003A85232B09F005CF0F900FBE60CE0E94D3
:10180000200746CFC8010E94DE060E94DD0740CFB8
:10181000C8010E94DE060E94DD07C8010E944B0637
:10182000882309F435CF4BCE789484B5826084BD8B
:1018300084B5816084BD85B5826085BD85B58160D4
:1018400085BD80916E00816080936E001092810052
:10185000809181008260809381008091810081600D
:1018600080938100809180008160809380008091CE
:10187000B10084608093B1008091B000816080935A
:10188000B00080917A00846080937A0080917A0021
:10189000826080937A0080917A00816080937A00E0
:1018A00080917A00806880937A001092C1000E9433
:1018B000780103E611E020E040EC50E063E371E0E2
:1018C0008AE491E00E944A0E813009F0B4C00FB65C
:1018D000F8940F928091660190916701892B09F02D
:1018E00050C088E591E00E94A1098FE491E00E9438
:1018F000A10988E591E090934E0180934D018FE41A
:1019000091E090934C0180934B0181E590E00E941F
:10191000C009EC01009789F14F96998388838AE08A
:101920008B8F85E08C8F0FB6F8940F924881598188
:101930008B8D6C8D9A01869F200D311D11243D8366
:101940002C831A8E5B834A8390E00197689F9001F5
:10195000699F300D1124CA01820F931F9F838E83CC
:101960008FEF8D8F8E8FCE0108960E94A109CE0138
:1019700041960E94A1090F900FBED0936701C093BA
:1019800066010F900FBE8091660190916701892BCF
:1019900009F451C001E611E023E045E550E068E3B9
:1019A00071E085E59AE00E944A0E813009F043C05B
:1019B000F8942FEF3FEF3093480120934701809335
:1019C000AF011092690110926801A89590EC88E12E
:1019D0000FB6F894A895809360000FBE90936000B6
:1019E000A091B001B091B101CD91CDBFDD91DEBF2D
:1019F000FF91EF91DF91CF91BF91AF919F918F9127
:101A00007F916F915F914F913F912F911F910F9116
:101A1000FF90EF90DF90CF90BF90AF909F908F900E
:101A20007F906F905F904F903F902F901F900F90FE
:101A30000FBE0F9008950E9478010E94E002FDCF32
:101A4000E3EBF1E01382128288EE93E0A0E0B0E0D5
:101A500084839583A683B7838AE091E09183808312
:101A600085EC90E09587848784EC90E09787868763
:101A700080EC90E0918B808B81EC90E0938B828B5B
:101A800082EC90E0958B848B86EC90E0978B868B34
:101A9000118E128E138E148E0895AF92BF92CF9234
:101AA000DF92EF92FF920F931F93CF93DF9300D0BB
:101AB00000D01F92CDB7DEB78C017B011D821C8246
:101AC00080E0680198E0C90ED11C0FB6F8940F921F
:101AD000F801228D938D291708F06DC0D28C448DAA
:101AE00041113FC080819181892B09F052C0F801DA
:101AF000E480F580E114F10411F480E02EC0F701D8
:101B000082A1815082A3268991A12917B1F3811165
:101B1000F4CF5701F2E0AF0EB11CC5010E94590687
:101B2000F70181A1868B482F50E024E030E0241B90
:101B3000350B358724879091AE01981710F4809368
:101B4000AE0129E0249FC001259F900D1124B5010D
:101B500086579E4F0E947D0681E0F801158214820F
:101B600019C050E0B701F801828193810E942911C8
:101B7000F801248D82819381820F911D938382834A
:101B8000248135818217930720F08081918193838E
:101B9000828380E0D394F801D28E9189992321F039
:101BA000C80141960E949E0681110E9420070F9055
:101BB0000FBE81E05FC02C813D81232B19F40F9073
:101BC0000FBE57C0811109C080916A01898380913D
:101BD0006801909169019B838A830F900FBE0E94D8
:101BE00045060FB6F8940F92F801858D8F3F09F4E2
:101BF000158EF801868D8F3F09F4168E0F900FBE5B
:101C0000BE016C5F7F4FCE0101960E9405068111D7
:101C10002BC00FB6F8940F92F801928D838D0F9020
:101C20000FBE98131BC0AC80BD806091B001709155
:101C3000B101645F7F4FC6010E94F80861E0C501F1
:101C40000E943009C8010E94DE060E94DD07882339
:101C500011F081E03ACF0E942007FBCFC8010E941B
:101C6000DE060E94DD07F5CFC8010E94DE060E9455
:101C7000DD0780E00F900F900F900F900F90DF9195
:101C8000CF911F910F91FF90EF90DF90CF90BF9079
:101C9000AF9008957F928F929F92AF92BF92CF9212
:101CA000DF92EF92FF920F931F93CF93DF93782EE3
:101CB000A92E6B01EA01B22ECA010E94C0094C0193
:101CC000892B09F462C188E290E00E94C0097C017E
:101CD0000097E9F0DC0158969C928E925797AE01DE
:101CE00065EA70E0C4010E9432112197D70157962E
:101CF000ED91FC915897EC0FFD1FC114D104D9F060
:101D0000B701675E7F4FD601C601089607C0C401C0
:101D10000E94AF093AC1A817B90749F09D014D913A
:101D2000EB014993BE01E90128812111F4CFD701CC
:101D300090961C9202C0E701198E8B2D843008F01A
:101D400083E0D70156968C93569791968C939197F2
:101D500092961C9292971B961C921E921A975596D9
:101D60001C921E9254971996FC92EE92189724E0BA
:101D700030E0E901C81BD1091D96DC93CE931C9776
:101D80005396FC92EE92529793961D921D921D923D
:101D90001C92969797961C9291E19083DF01119780
:101DA00082E28C93119723E32C9311977C921197E5
:101DB000AC9211971C92119720E82C9311971C92CA
:101DC000119722E02C93119723E02C93119724E094
:101DD0002C93119725E02C93119726E02C931197C3
:101DE00027E02C93119728E02C93119729E02C934E
:101DF000119720E12C9311979C93119792E19C935A
:101E0000119793E19C93119794E19C93119795E11D
:101E10009C93119796E19C93119797E19C9311974E
:101E200098E19C93119799E19C93119790E29C9370
:101E3000119791E29C9311978C93119783E28C9365
:101E400011971C9211971C92119786E28C9311970F
:101E500087E28C93119788E28C93119789E28C9397
:101E6000119780E38C93119781E38C93B697E701E8
:101E7000F983E8830115110519F0F801F182E08278
:101E80000FB6F8940F928091B2018F5F8093B201E8
:101E90008091B0019091B101892BD1F5F092B101FF
:101EA000E092B0018091B201813009F043C08AE82C
:101EB00091E00E94A10983E991E00E94A1098CE9C7
:101EC00091E00E94A10985EA91E00E94A10982E6C1
:101ED00092E00E94A10989E592E00E94A10981E8AF
:101EE00091E00E94A10988E791E00E94A1098FE694
:101EF00091E00E94A10982E692E090936E018093A6
:101F00006D0189E592E090936C0180936B0112C0A2
:101F10008091AF0181110EC0E091B001F091B1014B
:101F20009689D70156968C91891720F0F092B101CD
:101F3000E092B00180916B028F5F80936B02E701AA
:101F40008E899091AE01981710F48093AE01D9E07C
:101F50008D9FC0011124B7016E5F7F4F86579E4F42
:101F60000E947D060F900FBE8091AF01882359F02B
:101F7000E091B001F091B1019689F7018689981737
:101F800010F40E94200781E001C08FEFDF91CF9114
:101F90001F910F91FF90EF90DF90CF90BF90AF9087
:101FA0009F908F907F900895CF93DF9300D000D0C3
:101FB0001F92CDB7DEB79C018091660190916701B9
:101FC000009761F019827B836A833D832C83209183
:101FD000AF01222329F02091650102C080E005C0F5
:101FE000BE016F5F7F4F0E944D0D0F900F900F90BD
:101FF0000F900F90DF91CF910895EE0FFF1F059086
:10200000F491E02D09940F931F93CF93DF938230C7
:10201000910510F482E090E0E0916E02F0916F0281
:1020200020E030E0A0E0B0E0309719F1408151812C
:102030000281138148175907C8F08417950769F47E
:10204000109731F012960C93129713961C9327C099
:1020500000936E0210936F0222C02115310519F012
:102060004217530718F49A01BD01EF01DF01F8018F
:10207000DBCF21153105F9F0281B390B2430310550
:1020800080F48A819B816115710521F0FB019383A6
:10209000828304C090936F0280936E02FE01329699
:1020A00044C0FE01E20FF31F819391932250310946
:1020B000398328833AC020916C0230916D02232B22
:1020C00041F4209102013091030130936D0220937D
:1020D0006C0220910001309101012115310541F47C
:1020E0002DB73EB74091040150910501241B350BDB
:1020F000E0916C02F0916D02E217F307A0F42E1B41
:102100003F0B2817390778F0AC014E5F5F4F24175B
:10211000350748F04E0F5F1F50936D0240936C02DD
:102120008193919302C0E0E0F0E0CF01DF91CF9185
:102130001F910F910895CF93DF93009709F481C009
:10214000FC01329713821282A0916E02B0916F024D
:10215000109781F420813181820F931F20916C02AE
:1021600030916D022817390751F5F0936D02E09315
:102170006C0267C0ED0120E030E0CE17DF0740F4CD
:102180004A815B819E0141155105F1F0EA01F5CFCD
:10219000D383C28340815181840F951FC817D9070B
:1021A00059F488819981840F951F029691838083C9
:1021B0008A819B81938382832115310529F4F093D1
:1021C0006F02E0936E023DC0E901FB83EA8349910F
:1021D0005991C40FD51FEC17FD0761F480819181DF
:1021E000840F951F0296E9019983888382819381E8
:1021F0009B838A83E0E0F0E012968D919C91139787
:10220000009719F0FD01DC01F7CF8D919C9111979A
:102210009D012E5F3F4F820F931F20916C023091E2
:102220006D022817390769F4309729F410926F026C
:1022300010926E0202C013821282B0936D02A093BC
:102240006C02DF91CF91089581E090E0F8940C94B6
:102250003911FB01DC0102C001900D924150504048
:10226000D8F70895DC0101C06D9341505040E0F76C
:062270000895F894FFCF71
:10227600000070028000000000007102DA0108020E
:10228600BE02390217022B025461736B310054618E
:10229600736B32005461736B330049646C6554612F
:1022A600736B0049444C4500546D722053766300AD
:0422B6000D0A00000D
:00000001FF
